{
  "contractName": "HelloWorld",
  "abi": [
    {
      "constant": true,
      "inputs": [],
      "name": "balance",
      "outputs": [
        {
          "name": "",
          "type": "uint256"
        }
      ],
      "payable": false,
      "stateMutability": "view",
      "type": "function"
    },
    {
      "inputs": [],
      "payable": false,
      "stateMutability": "nonpayable",
      "type": "constructor"
    }
  ],
  "bytecode": "0x60606040523415600e57600080fd5b60008081905550609c806100236000396000f300606060405260043610603f576000357c0100000000000000000000000000000000000000000000000000000000900463ffffffff168063b69ef8a8146044575b600080fd5b3415604e57600080fd5b6054606a565b6040518082815260200191505060405180910390f35b600054815600a165627a7a72305820c719ac7f24f88601231b2fe18d8519e6db01aeb36b5224b72eefe262ad6becfe0029",
  "source": "pragma solidity ^0.4.18;\n\ncontract HelloWorld {\n    uint public balance;\n    \n    // constructor\n    function HelloWorld() {\n        balance = 0;\n    }\n}",
  "sourcePath": "/Users/frank/code/github/solidity-example/truffle_project/hello/contracts/HelloWorld.sol",
  "compiler": {
    "name": "solc",
    "version": "0.4.18+commit.9cf6e910.Emscripten.clang"
  },
  "schemaVersion": "1.0.1",
  "updatedAt": "2018-01-28T13:34:12.552Z"
}