{
  "contractName": "HelloWorld",
  "abi": [
    {
      "constant": false,
      "inputs": [
        {
          "name": "_id",
          "type": "uint256"
        },
        {
          "name": "_age",
          "type": "uint256"
        }
      ],
      "name": "update_names",
      "outputs": [],
      "payable": false,
      "stateMutability": "nonpayable",
      "type": "function"
    },
    {
      "constant": false,
      "inputs": [
        {
          "name": "_balance",
          "type": "int256"
        }
      ],
      "name": "update_balance2",
      "outputs": [],
      "payable": false,
      "stateMutability": "nonpayable",
      "type": "function"
    },
    {
      "constant": true,
      "inputs": [],
      "name": "balance2",
      "outputs": [
        {
          "name": "",
          "type": "int256"
        }
      ],
      "payable": false,
      "stateMutability": "view",
      "type": "function"
    },
    {
      "constant": true,
      "inputs": [
        {
          "name": "",
          "type": "uint256"
        }
      ],
      "name": "names",
      "outputs": [
        {
          "name": "",
          "type": "uint256"
        }
      ],
      "payable": false,
      "stateMutability": "view",
      "type": "function"
    },
    {
      "constant": true,
      "inputs": [],
      "name": "flag",
      "outputs": [
        {
          "name": "",
          "type": "bool"
        }
      ],
      "payable": false,
      "stateMutability": "view",
      "type": "function"
    },
    {
      "constant": true,
      "inputs": [],
      "name": "ower",
      "outputs": [
        {
          "name": "",
          "type": "string"
        }
      ],
      "payable": false,
      "stateMutability": "view",
      "type": "function"
    },
    {
      "constant": false,
      "inputs": [
        {
          "name": "_balance",
          "type": "uint256"
        }
      ],
      "name": "update_balance",
      "outputs": [],
      "payable": false,
      "stateMutability": "nonpayable",
      "type": "function"
    },
    {
      "constant": true,
      "inputs": [],
      "name": "balance",
      "outputs": [
        {
          "name": "",
          "type": "uint256"
        }
      ],
      "payable": false,
      "stateMutability": "view",
      "type": "function"
    },
    {
      "inputs": [
        {
          "name": "_balance",
          "type": "uint256"
        }
      ],
      "payable": false,
      "stateMutability": "nonpayable",
      "type": "constructor"
    }
  ],
  "bytecode": "0x6060604052341561000f57600080fd5b6040516020806104f483398101604052808051906020019091905050600080819055507fffffffffffffffffffffffffffffffffffffffffffffffffffffffffffffffff6001819055506040805190810160405280600581526020017f4672616e6b000000000000000000000000000000000000000000000000000000815250600490805190602001906100a49291906100c6565b506001600260006101000a81548160ff0219169083151502179055505061016b565b828054600181600116156101000203166002900490600052602060002090601f016020900481019282601f1061010757805160ff1916838001178555610135565b82800160010185558215610135579182015b82811115610134578251825591602001919060010190610119565b5b5090506101429190610146565b5090565b61016891905b8082111561016457600081600090555060010161014c565b5090565b90565b61037a8061017a6000396000f30060606040526004361061008e576000357c0100000000000000000000000000000000000000000000000000000000900463ffffffff1680630d93aed1146100935780632134c0ff146100bf57806340441eec146100e25780634622ab031461010b578063890eba68146101425780639438f22a1461016f578063a0e776ae146101fd578063b69ef8a814610220575b600080fd5b341561009e57600080fd5b6100bd6004808035906020019091908035906020019091905050610249565b005b34156100ca57600080fd5b6100e06004808035906020019091905050610265565b005b34156100ed57600080fd5b6100f561026f565b6040518082815260200191505060405180910390f35b341561011657600080fd5b61012c6004808035906020019091905050610275565b6040518082815260200191505060405180910390f35b341561014d57600080fd5b61015561028d565b604051808215151515815260200191505060405180910390f35b341561017a57600080fd5b6101826102a0565b6040518080602001828103825283818151815260200191508051906020019080838360005b838110156101c25780820151818401526020810190506101a7565b50505050905090810190601f1680156101ef5780820380516001836020036101000a031916815260200191505b509250505060405180910390f35b341561020857600080fd5b61021e600480803590602001909190505061033e565b005b341561022b57600080fd5b610233610348565b6040518082815260200191505060405180910390f35b8060036000848152602001908152602001600020819055505050565b8060018190555050565b60015481565b60036020528060005260406000206000915090505481565b600260009054906101000a900460ff1681565b60048054600181600116156101000203166002900480601f0160208091040260200160405190810160405280929190818152602001828054600181600116156101000203166002900480156103365780601f1061030b57610100808354040283529160200191610336565b820191906000526020600020905b81548152906001019060200180831161031957829003601f168201915b505050505081565b8060008190555050565b600054815600a165627a7a723058204a3dffd62333bc39a997e369f9115f470a3976c8d5dee772b1173ea5e038d1d90029",
  "source": "pragma solidity ^0.4.18;\n\ncontract HelloWorld {\n    uint public balance;\n    int public balance2;\n    bool public flag;\n\n    mapping(uint => uint) public names;\n    string public ower;\n    \n    // constructor\n    function HelloWorld(uint _balance) {\n        balance = 0;\n        balance2 = -1;\n        ower = \"Frank\";\n        flag = true;\n\n    }\n\n    function update_balance(uint _balance) {\n        balance = _balance;\n    }\n\n    function update_balance2(int _balance) {\n        balance2 = _balance;\n    }\n\n    function update_names(uint _id, uint _age) {\n        names[_id] = _age;\n    }\n}",
  "sourcePath": "/Users/frank/code/github/solidity-example/truffle_project/hello/contracts/HelloWorld.sol",
  "compiler": {
    "name": "solc",
    "version": "0.4.18+commit.9cf6e910.Emscripten.clang"
  },
  "schemaVersion": "1.0.1",
  "updatedAt": "2018-01-29T03:35:12.443Z"
}